:030000000200C239
:0C00C200787FE4F6D8FD75811102010979
:0801BA00020E0000020A000021
:0E016D00EF4E6018EF1FAC0670011E4C600EC6
:0C017B00751002751127D511FDD510FA82
:0301870080E822EB
:0E018A00EF4E6018EF1FAC0670011E4C600EA9
:0C019800751020751128D511FDD510FA46
:0301A40080E822CE
:03000B0002014EA1
:10014E00C0E0C0D0050BE50B7002050AB50F0BE53C
:0F015E000AB50E06750A00750B00D0D0D0E0323E
:1001A700438E805389F0758A40758CA2C28DD28C9C
:0301B700D2A922A8
:10000E00E4F5B2F5B1F5CAF5C9D2CD7FE87E03129B
:10001E00018AC2CDC2CC750E00750F6230CC7AC388
:10002E007464950FF50FE4950EF50E7F0A7E00129F
:10003E00018A30CC58050FE50F7002050EC2CCC2F6
:10004E00CD6403450E7005F50E750F0AE50F640BB2
:10005E00450E7005F50E750F1EE50F641F450E70EB
:10006E0005F50E750F32E50F6433450E7005F50E6E
:10007E00750F4BE50F644C450E7005F50E750F624E
:10008E00E50F6463450E7005F50E750F02C37464BB
:10009E00950FF50FE4950EF50ED2CDAF0FAE0E12F5
:1000AE00016DC2CDC37464950FFFE4950EFE12016F
:0400BE006D02002AA5
:1000CE0002000EE493A3F8E493A34003F68001F23A
:1000DE0008DFF48029E493A3F85407240CC8C33333
:1000EE00C4540F4420C8834004F456800146F6DF02
:1000FE00E4800B01020408102040809001BAE47ED7
:10010E00019360BCA3FF543F30E509541FFEE493F6
:10011E00A360010ECF54C025E060A840B8E493A3BD
:10012E00FAE493A3F8E493A3C8C582C8CAC583CAE8
:10013E00F0A3C8C582C8CAC583CADFE9DEE780BEA0
:0101C200003C
:00000001FF
